:1000000045C00000CDC00000F9C0000054C0000091
:1000100052C0000050C000004EC000004CC00000A4
:100020004AC0000048C0000046C0000044C00000B4
:1000300042C0000040C000003EC000003CC00000C4
:100040003AC0000038C0000036C0000034C00000D4
:1000500032C0000030C000002EC000002CC00000E4
:100060002AC0000028C0000026C0000024C00000F4
:1000700022C0000020C000001EC000001CC0000004
:100080001AC0000018C0000016C0000011241FBED6
:10009000CFEFD0E1DEBFCDBF11E0A0E0B1E0ECE1F9
:1000A000F2E000E00BBF02C007900D92A230B10752
:1000B000D9F702D0B1C0A4CF83E089BF8AE0809392
:1000C0006A0078948FEF8ABB87BB84BB11BA80EA41
:1000D00085BB82EA8FBD89E18EBD8FE193E097BD3C
:1000E00086BD80E991E09BBD8ABD99BD88BD24EFA6
:1000F00031E0B8E0A4E070EA62E0F0E5E1E048E574
:1001000052E08091000190910101019739F4F5BB13
:100110003BBD2ABD39BD28BDEBBB2AC08091000183
:1001200090910101892B39F475BB3BBD2ABD39BDC6
:1001300028BD6BBB1DC08091000190910101029709
:1001400049F48AB59BB50A969BBD8ABD39BD28BDC9
:10015000ABBB0EC08091000190910101039741F467
:100160003BBD2ABD88B599B50A9699BD88BDBBBB74
:100170008AB59BB58835924010F05BBD4ABD88B505
:1001800099B58835924010F059BD48BD8FEF91EE7A
:10019000C4E081509040C040E1F700C00000B1CF02
:1001A0001F920F920FB60F9211248F939F938091FD
:1001B000000190910101019739F483E090E0909360
:1001C00001018093000113C0809100019091010111
:1001D000039739F482E090E090930101809300014D
:1001E00006C081E090E090930101809300019F910F
:1001F0008F910F900FBE0F901F9018951F920F9226
:100200000FB60F92112410920101109200010F906D
:0C0210000FBE0F901F901895F894FFCFC0
:02021C000100DF
:00000001FF
